{
  "_format": "hh-sol-artifact-1",
  "contractName": "FestakedOptimized",
  "sourceName": "contracts/FestakedOptimized.sol",
  "abi": [
    {
      "inputs": [
        {
          "internalType": "string",
          "name": "name_",
          "type": "string"
        },
        {
          "internalType": "address",
          "name": "tokenAddress_",
          "type": "address"
        },
        {
          "internalType": "uint256",
          "name": "stakingStarts_",
          "type": "uint256"
        },
        {
          "internalType": "uint256",
          "name": "stakingEnds_",
          "type": "uint256"
        },
        {
          "internalType": "uint256",
          "name": "withdrawStarts_",
          "type": "uint256"
        },
        {
          "internalType": "uint256",
          "name": "withdrawEnds_",
          "type": "uint256"
        },
        {
          "internalType": "uint256",
          "name": "stakingCap_",
          "type": "uint256"
        }
      ],
      "stateMutability": "nonpayable",
      "type": "constructor"
    },
    {
      "anonymous": false,
      "inputs": [
        {
          "indexed": true,
          "internalType": "address",
          "name": "token",
          "type": "address"
        },
        {
          "indexed": true,
          "internalType": "address",
          "name": "rewardToken",
          "type": "address"
        },
        {
          "indexed": true,
          "internalType": "address",
          "name": "staker_",
          "type": "address"
        },
        {
          "indexed": false,
          "internalType": "uint256",
          "name": "amount_",
          "type": "uint256"
        },
        {
          "indexed": false,
          "internalType": "uint256",
          "name": "reward_",
          "type": "uint256"
        }
      ],
      "name": "PaidOut",
      "type": "event"
    },
    {
      "anonymous": false,
      "inputs": [
        {
          "indexed": true,
          "internalType": "address",
          "name": "token",
          "type": "address"
        },
        {
          "indexed": true,
          "internalType": "address",
          "name": "staker_",
          "type": "address"
        },
        {
          "indexed": false,
          "internalType": "uint256",
          "name": "requestedAmount_",
          "type": "uint256"
        },
        {
          "indexed": false,
          "internalType": "uint256",
          "name": "stakedAmount_",
          "type": "uint256"
        }
      ],
      "name": "Staked",
      "type": "event"
    },
    {
      "inputs": [],
      "name": "name",
      "outputs": [
        {
          "internalType": "string",
          "name": "",
          "type": "string"
        }
      ],
      "stateMutability": "view",
      "type": "function"
    },
    {
      "inputs": [
        {
          "internalType": "uint256",
          "name": "amount",
          "type": "uint256"
        }
      ],
      "name": "stake",
      "outputs": [
        {
          "internalType": "bool",
          "name": "",
          "type": "bool"
        }
      ],
      "stateMutability": "nonpayable",
      "type": "function"
    },
    {
      "inputs": [
        {
          "internalType": "address",
          "name": "staker",
          "type": "address"
        },
        {
          "internalType": "uint256",
          "name": "amount",
          "type": "uint256"
        }
      ],
      "name": "stakeFor",
      "outputs": [
        {
          "internalType": "bool",
          "name": "",
          "type": "bool"
        }
      ],
      "stateMutability": "nonpayable",
      "type": "function"
    },
    {
      "inputs": [
        {
          "internalType": "address",
          "name": "account",
          "type": "address"
        }
      ],
      "name": "stakeOf",
      "outputs": [
        {
          "internalType": "uint256",
          "name": "",
          "type": "uint256"
        }
      ],
      "stateMutability": "view",
      "type": "function"
    },
    {
      "inputs": [],
      "name": "stakeState",
      "outputs": [
        {
          "internalType": "uint256",
          "name": "stakedTotal",
          "type": "uint256"
        },
        {
          "internalType": "uint256",
          "name": "stakingCap",
          "type": "uint256"
        },
        {
          "internalType": "uint256",
          "name": "stakedBalance",
          "type": "uint256"
        },
        {
          "internalType": "uint256",
          "name": "withdrawnEarly",
          "type": "uint256"
        }
      ],
      "stateMutability": "view",
      "type": "function"
    },
    {
      "inputs": [],
      "name": "stakedBalance",
      "outputs": [
        {
          "internalType": "uint256",
          "name": "",
          "type": "uint256"
        }
      ],
      "stateMutability": "view",
      "type": "function"
    },
    {
      "inputs": [],
      "name": "stakedTotal",
      "outputs": [
        {
          "internalType": "uint256",
          "name": "",
          "type": "uint256"
        }
      ],
      "stateMutability": "view",
      "type": "function"
    },
    {
      "inputs": [],
      "name": "stakingCap",
      "outputs": [
        {
          "internalType": "uint256",
          "name": "",
          "type": "uint256"
        }
      ],
      "stateMutability": "view",
      "type": "function"
    },
    {
      "inputs": [],
      "name": "stakingEnds",
      "outputs": [
        {
          "internalType": "uint256",
          "name": "",
          "type": "uint256"
        }
      ],
      "stateMutability": "view",
      "type": "function"
    },
    {
      "inputs": [],
      "name": "stakingStarts",
      "outputs": [
        {
          "internalType": "uint256",
          "name": "",
          "type": "uint256"
        }
      ],
      "stateMutability": "view",
      "type": "function"
    },
    {
      "inputs": [],
      "name": "tokenAddress",
      "outputs": [
        {
          "internalType": "address",
          "name": "",
          "type": "address"
        }
      ],
      "stateMutability": "view",
      "type": "function"
    },
    {
      "inputs": [],
      "name": "withdrawEnds",
      "outputs": [
        {
          "internalType": "uint256",
          "name": "",
          "type": "uint256"
        }
      ],
      "stateMutability": "view",
      "type": "function"
    },
    {
      "inputs": [],
      "name": "withdrawStarts",
      "outputs": [
        {
          "internalType": "uint256",
          "name": "",
          "type": "uint256"
        }
      ],
      "stateMutability": "view",
      "type": "function"
    }
  ],
  "bytecode": "0x60806040523480156200001157600080fd5b50604051620014b6380380620014b68339818101604052810190620000379190620004c6565b6103e973__$512c7b81a0962270b10e2b98f32ce14066$__63ffa1ad746040518163ffffffff1660e01b815260040160206040518083038186803b1580156200007f57600080fd5b505af415801562000094573d6000803e3d6000fd5b505050506040513d601f19601f82011682018060405250810190620000ba91906200058c565b14620000fd576040517f08c379a0000000000000000000000000000000000000000000000000000000008152600401620000f49062000751565b60405180910390fd5b86600190805190602001906200011592919062000376565b50600073ffffffffffffffffffffffffffffffffffffffff168673ffffffffffffffffffffffffffffffffffffffff16141562000189576040517f08c379a000000000000000000000000000000000000000000000000000000000815260040162000180906200070d565b60405180910390fd5b85600260006101000a81548173ffffffffffffffffffffffffffffffffffffffff021916908373ffffffffffffffffffffffffffffffffffffffff1602179055506000851162000210576040517f08c379a0000000000000000000000000000000000000000000000000000000008152600401620002079062000773565b60405180910390fd5b428510156200022657426003819055506200022e565b846003819055505b60035484101562000276576040517f08c379a00000000000000000000000000000000000000000000000000000000081526004016200026d90620006c9565b60405180910390fd5b83600481905550600454831015620002c5576040517f08c379a0000000000000000000000000000000000000000000000000000000008152600401620002bc906200072f565b60405180910390fd5b8260058190555060055482101562000314576040517f08c379a00000000000000000000000000000000000000000000000000000000081526004016200030b90620006eb565b60405180910390fd5b81600681905550600081101562000362576040517f08c379a0000000000000000000000000000000000000000000000000000000008152600401620003599062000795565b60405180910390fd5b806007819055505050505050505062000b87565b82805462000384906200089b565b90600052602060002090601f016020900481019282620003a85760008555620003f4565b82601f10620003c357805160ff1916838001178555620003f4565b82800160010185558215620003f4579182015b82811115620003f3578251825591602001919060010190620003d6565b5b50905062000403919062000407565b5090565b5b808211156200042257600081600090555060010162000408565b5090565b60006200043d6200043784620007e0565b620007b7565b9050828152602081018484840111156200045657600080fd5b6200046384828562000865565b509392505050565b6000815190506200047c8162000b53565b92915050565b600082601f8301126200049457600080fd5b8151620004a684826020860162000426565b91505092915050565b600081519050620004c08162000b6d565b92915050565b600080600080600080600060e0888a031215620004e257600080fd5b600088015167ffffffffffffffff811115620004fd57600080fd5b6200050b8a828b0162000482565b97505060206200051e8a828b016200046b565b9650506040620005318a828b01620004af565b9550506060620005448a828b01620004af565b9450506080620005578a828b01620004af565b93505060a06200056a8a828b01620004af565b92505060c06200057d8a828b01620004af565b91505092959891949750929550565b6000602082840312156200059f57600080fd5b6000620005af84828501620004af565b91505092915050565b6000620005c760338362000816565b9150620005d48262000976565b604082019050919050565b6000620005ee60358362000816565b9150620005fb82620009c5565b604082019050919050565b60006200061560148362000816565b9150620006228262000a14565b602082019050919050565b60006200063c60348362000816565b9150620006498262000a3d565b604082019050919050565b600062000663601a8362000816565b9150620006708262000a8c565b602082019050919050565b60006200068a60228362000816565b9150620006978262000ab5565b604082019050919050565b6000620006b160288362000816565b9150620006be8262000b04565b604082019050919050565b60006020820190508181036000830152620006e481620005b8565b9050919050565b600060208201905081810360008301526200070681620005df565b9050919050565b60006020820190508181036000830152620007288162000606565b9050919050565b600060208201905081810360008301526200074a816200062d565b9050919050565b600060208201905081810360008301526200076c8162000654565b9050919050565b600060208201905081810360008301526200078e816200067b565b9050919050565b60006020820190508181036000830152620007b081620006a2565b9050919050565b6000620007c3620007d6565b9050620007d18282620008d1565b919050565b6000604051905090565b600067ffffffffffffffff821115620007fe57620007fd62000936565b5b620008098262000965565b9050602081019050919050565b600082825260208201905092915050565b600062000834826200083b565b9050919050565b600073ffffffffffffffffffffffffffffffffffffffff82169050919050565b6000819050919050565b60005b838110156200088557808201518184015260208101905062000868565b8381111562000895576000848401525b50505050565b60006002820490506001821680620008b457607f821691505b60208210811415620008cb57620008ca62000907565b5b50919050565b620008dc8262000965565b810181811067ffffffffffffffff82111715620008fe57620008fd62000936565b5b80604052505050565b7f4e487b7100000000000000000000000000000000000000000000000000000000600052602260045260246000fd5b7f4e487b7100000000000000000000000000000000000000000000000000000000600052604160045260246000fd5b6000601f19601f8301169050919050565b7f46657374616b696e673a207374616b696e6720656e64206d757374206265206160008201527f66746572207374616b696e672073746172747300000000000000000000000000602082015250565b7f46657374616b696e673a207769746864726177456e6473206d7573742062652060008201527f6166746572207769746864726177207374617274730000000000000000000000602082015250565b7f46657374616b696e673a20302061646472657373000000000000000000000000600082015250565b7f46657374616b696e673a207769746864726177537461727473206d757374206260008201527f65206166746572207374616b696e6720656e6473000000000000000000000000602082015250565b7f426164206c696e6b6564206c6962726172792076657273696f6e000000000000600082015250565b7f46657374616b696e673a207a65726f207374616b696e6720737461727420746960008201527f6d65000000000000000000000000000000000000000000000000000000000000602082015250565b7f46657374616b696e673a207374616b696e674361702063616e6e6f742062652060008201527f6e65676174697665000000000000000000000000000000000000000000000000602082015250565b62000b5e8162000827565b811462000b6a57600080fd5b50565b62000b78816200085b565b811462000b8457600080fd5b50565b61091f8062000b976000396000f3fe608060405234801561001057600080fd5b50600436106100cf5760003560e01c80636d68c7d41161008c578063a694fc3a11610066578063a694fc3a14610209578063b410e2a114610239578063d66692a714610257578063eacebf6114610275576100cf565b80636d68c7d4146101ac5780638c09a2f9146101ca5780639d76ea58146101eb576100cf565b806306fdde03146100d457806321b13cdf146100f25780632ee4090814610110578063426233601461014057806344c370d3146101705780635b9f00161461018e575b600080fd5b6100dc610293565b6040516100e99190610719565b60405180910390f35b6100fa610325565b604051610107919061073b565b60405180910390f35b61012a6004803603810190610125919061054c565b61032b565b60405161013791906106fe565b60405180910390f35b61015a60048036038101906101559190610523565b610340565b604051610167919061073b565b60405180910390f35b61017861038c565b604051610185919061073b565b60405180910390f35b610196610392565b6040516101a3919061073b565b60405180910390f35b6101b461039f565b6040516101c1919061073b565b60405180910390f35b6101d26103a5565b6040516101e29493929190610756565b60405180910390f35b6101f36103c3565b6040516102009190610665565b60405180910390f35b610223600480360381019061021e91906105b1565b6103e9565b60405161023091906106fe565b60405180910390f35b610241610402565b60405161024e919061073b565b60405180910390f35b61025f610408565b60405161026c919061073b565b60405180910390f35b61027d610415565b60405161028a919061073b565b60405180910390f35b6060600180546102a290610832565b80601f01602080910402602001604051908101604052809291908181526020018280546102ce90610832565b801561031b5780601f106102f05761010080835404028352916020019161031b565b820191906000526020600020905b8154815290600101906020018083116102fe57829003601f168201915b5050505050905090565b60055481565b600061033833848461041b565b905092915050565b6000600860040160008373ffffffffffffffffffffffffffffffffffffffff1673ffffffffffffffffffffffffffffffffffffffff168152602001908152602001600020549050919050565b60075481565b6000600860020154905090565b60035481565b60088060000154908060010154908060020154908060030154905084565b600260009054906101000a900473ffffffffffffffffffffffffffffffffffffffff1681565b6000803390506103fa81828561041b565b915050919050565b60045481565b6000600860000154905090565b60065481565b600073__$512c7b81a0962270b10e2b98f32ce14066$__6314b6043e858585600354600454600754600260009054906101000a900473ffffffffffffffffffffffffffffffffffffffff1660086040518963ffffffff1660e01b815260040161048b989796959493929190610680565b60206040518083038186803b1580156104a357600080fd5b505af41580156104b7573d6000803e3d6000fd5b505050506040513d601f19601f820116820180604052508101906104db9190610588565b90509392505050565b6000813590506104f3816108a4565b92915050565b600081519050610508816108bb565b92915050565b60008135905061051d816108d2565b92915050565b60006020828403121561053557600080fd5b6000610543848285016104e4565b91505092915050565b6000806040838503121561055f57600080fd5b600061056d858286016104e4565b925050602061057e8582860161050e565b9150509250929050565b60006020828403121561059a57600080fd5b60006105a8848285016104f9565b91505092915050565b6000602082840312156105c357600080fd5b60006105d18482850161050e565b91505092915050565b6105e3816107b7565b82525050565b6105f2816107b7565b82525050565b610601816107c9565b82525050565b60006106128261079b565b61061c81856107a6565b935061062c8185602086016107ff565b61063581610893565b840191505092915050565b8082525050565b610650816107f5565b82525050565b61065f816107f5565b82525050565b600060208201905061067a60008301846105da565b92915050565b600061010082019050610696600083018b6105e9565b6106a3602083018a6105e9565b6106b06040830189610656565b6106bd6060830188610656565b6106ca6080830187610656565b6106d760a0830186610656565b6106e460c08301856105e9565b6106f160e0830184610640565b9998505050505050505050565b600060208201905061071360008301846105f8565b92915050565b600060208201905081810360008301526107338184610607565b905092915050565b60006020820190506107506000830184610647565b92915050565b600060808201905061076b6000830187610647565b6107786020830186610647565b6107856040830185610647565b6107926060830184610647565b95945050505050565b600081519050919050565b600082825260208201905092915050565b60006107c2826107d5565b9050919050565b60008115159050919050565b600073ffffffffffffffffffffffffffffffffffffffff82169050919050565b6000819050919050565b60005b8381101561081d578082015181840152602081019050610802565b8381111561082c576000848401525b50505050565b6000600282049050600182168061084a57607f821691505b6020821081141561085e5761085d610864565b5b50919050565b7f4e487b7100000000000000000000000000000000000000000000000000000000600052602260045260246000fd5b6000601f19601f8301169050919050565b6108ad816107b7565b81146108b857600080fd5b50565b6108c4816107c9565b81146108cf57600080fd5b50565b6108db816107f5565b81146108e657600080fd5b5056fea264697066735822122071eb8f08a8771cd8229c2965755154323f8c1c97ba11d330d6055820a1722d8b64736f6c63430008040033",
  "linkReferences": {
    "contracts/Festaked.Library.sol": {
      "FestakedLib": [
        {
          "length": 20,
          "start": 60
        },
        {
          "length": 20,
          "start": 4022
        }
      ]
    }
  },
  "deployedLinkReferences": {
    "contracts/Festaked.Library.sol": {
      "FestakedLib": [
        {
          "length": 20,
          "start": 1055
        }
      ]
    }
  }
}