{
  "_format": "hh-sol-artifact-1",
  "contractName": "FestakedLib",
  "sourceName": "contracts/Festaked.Library.sol",
  "abi": [
    {
      "anonymous": false,
      "inputs": [
        {
          "indexed": true,
          "internalType": "address",
          "name": "token",
          "type": "address"
        },
        {
          "indexed": true,
          "internalType": "address",
          "name": "rewardToken",
          "type": "address"
        },
        {
          "indexed": true,
          "internalType": "address",
          "name": "staker_",
          "type": "address"
        },
        {
          "indexed": false,
          "internalType": "uint256",
          "name": "amount_",
          "type": "uint256"
        },
        {
          "indexed": false,
          "internalType": "uint256",
          "name": "reward_",
          "type": "uint256"
        }
      ],
      "name": "PaidOut",
      "type": "event"
    },
    {
      "anonymous": false,
      "inputs": [
        {
          "indexed": true,
          "internalType": "address",
          "name": "token",
          "type": "address"
        },
        {
          "indexed": true,
          "internalType": "address",
          "name": "staker_",
          "type": "address"
        },
        {
          "indexed": false,
          "internalType": "uint256",
          "name": "requestedAmount_",
          "type": "uint256"
        },
        {
          "indexed": false,
          "internalType": "uint256",
          "name": "stakedAmount_",
          "type": "uint256"
        }
      ],
      "name": "Staked",
      "type": "event"
    },
    {
      "inputs": [],
      "name": "VERSION",
      "outputs": [
        {
          "internalType": "uint256",
          "name": "",
          "type": "uint256"
        }
      ],
      "stateMutability": "pure",
      "type": "function"
    }
  ],
  "bytecode": "0x61217c610053600b82828239805160001a607314610046577f4e487b7100000000000000000000000000000000000000000000000000000000600052600060045260246000fd5b30600052607381538281f3fe73000000000000000000000000000000000000000030146080604052600436106100875760003560e01c806390b7e9441161006557806390b7e94414610143578063913d8f1c14610180578063f3ec6892146101bd578063ffa1ad74146101fa57610087565b806314b6043e1461008c5780633362c3cd146100c957806356fb23a914610106575b600080fd5b81801561009857600080fd5b506100b360048036038101906100ae9190611554565b610218565b6040516100c09190611997565b60405180910390f35b8180156100d557600080fd5b506100f060048036038101906100eb9190611417565b610315565b6040516100fd9190611997565b60405180910390f35b81801561011257600080fd5b5061012d60048036038101906101289190611658565b610463565b60405161013a9190611997565b60405180910390f35b81801561014f57600080fd5b5061016a60048036038101906101659190611554565b6105aa565b6040516101779190611b54565b60405180910390f35b81801561018c57600080fd5b506101a760048036038101906101a2919061148e565b61078d565b6040516101b49190611b54565b60405180910390f35b8180156101c957600080fd5b506101e460048036038101906101df919061148e565b61094d565b6040516101f19190611997565b60405180910390f35b610202610a2d565b60405161020f9190611b54565b60405180910390f35b60008061022b8a8a8a8a8a8a8a8a6105aa565b9050610244818460020154610a3790919063ffffffff16565b8360020181905550610263818460000154610a3790919063ffffffff16565b83600001819055506102bf818460040160008c73ffffffffffffffffffffffffffffffffffffffff1673ffffffffffffffffffffffffffffffffffffffff16815260200190815260200160002054610a3790919063ffffffff16565b8360040160008b73ffffffffffffffffffffffffffffffffffffffff1673ffffffffffffffffffffffffffffffffffffffff16815260200190815260200160002081905550600191505098975050505050505050565b6000806103b783600101548873ffffffffffffffffffffffffffffffffffffffff166370a08231886040518263ffffffff1660e01b8152600401610359919061191c565b60206040518083038186803b15801561037157600080fd5b505afa158015610385573d6000803e3d6000fd5b505050506040513d601f19601f820116820180604052508101906103a9919061162f565b610a4d90919063ffffffff16565b90508573ffffffffffffffffffffffffffffffffffffffff168773ffffffffffffffffffffffffffffffffffffffff161415610403576104008482610a4d90919063ffffffff16565b90505b600081141561041657600191505061045a565b61042d818460010154610a3790919063ffffffff16565b836001018190555061044c818460000154610a3790919063ffffffff16565b836000018190555060019150505b95945050505050565b60008085116104a7576040517f08c379a000000000000000000000000000000000000000000000000000000000815260040161049e90611af4565b60405180910390fd5b60008410156104eb576040517f08c379a00000000000000000000000000000000000000000000000000000000081526004016104e290611a14565b60405180910390fd5b8484111561052e576040517f08c379a000000000000000000000000000000000000000000000000000000000815260040161052590611ad4565b60405180910390fd5b600033905061053e818786610a63565b9550610557868460010154610a3790919063ffffffff16565b8360010181905550610576868460000154610a3790919063ffffffff16565b8360000181905550610595858460020154610a3790919063ffffffff16565b83600201819055506001915050949350505050565b600085804210156105f0576040517f08c379a00000000000000000000000000000000000000000000000000000000081526004016105e790611a34565b60405180910390fd5b85804210610633576040517f08c379a000000000000000000000000000000000000000000000000000000000815260040161062a90611a34565b60405180910390fd5b886000811415610678576040517f08c379a000000000000000000000000000000000000000000000000000000000815260040161066f90611b34565b60405180910390fd5b60008a90506000866002015490506000891180156106a757506106a4818a610a4d90919063ffffffff16565b82115b156106c2576106bf818a610a4d90919063ffffffff16565b91505b5060008111610706576040517f08c379a00000000000000000000000000000000000000000000000000000000081526004016106fd90611a54565b60405180910390fd5b6107118d8289610a63565b90508b73ffffffffffffffffffffffffffffffffffffffff168773ffffffffffffffffffffffffffffffffffffffff167f6c86f3fd5118b3aa8bb4f389a617046de0a3d3d477de1a1673d227f802f616dc8d84604051610772929190611b6f565b60405180910390a38094505050505098975050505050505050565b600085804210156107d3576040517f08c379a00000000000000000000000000000000000000000000000000000000081526004016107ca90611a34565b60405180910390fd5b876000811415610818576040517f08c379a000000000000000000000000000000000000000000000000000000000815260040161080f90611b34565b60405180910390fd5b33600073ffffffffffffffffffffffffffffffffffffffff168173ffffffffffffffffffffffffffffffffffffffff161415610889576040517f08c379a000000000000000000000000000000000000000000000000000000000815260040161088090611a74565b60405180910390fd5b8560040160008e73ffffffffffffffffffffffffffffffffffffffff1673ffffffffffffffffffffffffffffffffffffffff168152602001908152602001600020548a111561090d576040517f08c379a0000000000000000000000000000000000000000000000000000000008152600401610904906119d4565b60405180910390fd5b8742101561092c576109258c8c8f8d8c8c8c8c610a7a565b935061093d565b61093a8c8c8f8d8a8a610c83565b93505b5050509998505050505050505050565b6000806109618b8b8b8b8b8b8b8b8b61078d565b905061097a818560020154610a4d90919063ffffffff16565b84600201819055506109d6818560040160008e73ffffffffffffffffffffffffffffffffffffffff1673ffffffffffffffffffffffffffffffffffffffff16815260200190815260200160002054610a4d90919063ffffffff16565b8460040160008d73ffffffffffffffffffffffffffffffffffffffff1673ffffffffffffffffffffffffffffffffffffffff1681526020019081526020016000208190555060019150509998505050505050505050565b60006103e9905090565b60008183610a459190611bca565b905092915050565b60008183610a5b9190611cab565b905092915050565b6000610a7184308585610e3e565b90509392505050565b600086600073ffffffffffffffffffffffffffffffffffffffff168173ffffffffffffffffffffffffffffffffffffffff161415610aed576040517f08c379a0000000000000000000000000000000000000000000000000000000008152600401610ae490611a74565b60405180910390fd5b6000610b188560000154610b0a888a610a4d90919063ffffffff16565b610e5690919063ffffffff16565b90506000610b6982610b5b8b610b4d8960020154610b3f8d42610a4d90919063ffffffff16565b610e5690919063ffffffff16565b610e5690919063ffffffff16565b610e6c90919063ffffffff16565b9050610b82818660000154610a4d90919063ffffffff16565b85600001819055506000610b978b8b8f610e82565b90506000610ba68c848f610e82565b9050818015610bb25750805b610bf1576040517f08c379a0000000000000000000000000000000000000000000000000000000008152600401610be890611ab4565b60405180910390fd5b8b73ffffffffffffffffffffffffffffffffffffffff168d73ffffffffffffffffffffffffffffffffffffffff168f73ffffffffffffffffffffffffffffffffffffffff167f0fd12da3890315fa38b862dc2fff7f24c95981f6508cc2be090640de791b671e8e87604051610c67929190611b6f565b60405180910390a48a9550505050505098975050505050505050565b600084600073ffffffffffffffffffffffffffffffffffffffff168173ffffffffffffffffffffffffffffffffffffffff161415610cf6576040517f08c379a0000000000000000000000000000000000000000000000000000000008152600401610ced90611a74565b60405180910390fd5b6000836000015490506000610d2a8660020154610d1c8985610e5690919063ffffffff16565b610e6c90919063ffffffff16565b9050610d3f8183610a4d90919063ffffffff16565b85600001819055506000610d5489898d610e82565b90506000610d638a848d610e82565b9050818015610d6f5750805b610dae576040517f08c379a0000000000000000000000000000000000000000000000000000000008152600401610da590611ab4565b60405180910390fd5b8973ffffffffffffffffffffffffffffffffffffffff168b73ffffffffffffffffffffffffffffffffffffffff168d73ffffffffffffffffffffffffffffffffffffffff167f0fd12da3890315fa38b862dc2fff7f24c95981f6508cc2be090640de791b671e8c87604051610e24929190611b6f565b60405180910390a488955050505050509695505050505050565b6000610e4c82868686610ecc565b9050949350505050565b60008183610e649190611c51565b905092915050565b60008183610e7a9190611c20565b905092915050565b600080831415610e955760019050610ec5565b610ec084848473ffffffffffffffffffffffffffffffffffffffff166110969092919063ffffffff16565b600190505b9392505050565b6000808573ffffffffffffffffffffffffffffffffffffffff166370a08231856040518263ffffffff1660e01b8152600401610f08919061191c565b60206040518083038186803b158015610f2057600080fd5b505afa158015610f34573d6000803e3d6000fd5b505050506040513d601f19601f82011682018060405250810190610f58919061162f565b90508573ffffffffffffffffffffffffffffffffffffffff166323b872dd8686866040518463ffffffff1660e01b8152600401610f9793929190611937565b602060405180830381600087803b158015610fb157600080fd5b505af1158015610fc5573d6000803e3d6000fd5b505050506040513d601f19601f82011682018060405250810190610fe99190611606565b5060008673ffffffffffffffffffffffffffffffffffffffff166370a08231866040518263ffffffff1660e01b8152600401611025919061191c565b60206040518083038186803b15801561103d57600080fd5b505afa158015611051573d6000803e3d6000fd5b505050506040513d601f19601f82011682018060405250810190611075919061162f565b905061108a8282610a4d90919063ffffffff16565b92505050949350505050565b6111178363a9059cbb60e01b84846040516024016110b592919061196e565b604051602081830303815290604052907bffffffffffffffffffffffffffffffffffffffffffffffffffffffff19166020820180517bffffffffffffffffffffffffffffffffffffffffffffffffffffffff838183161783525050505061111c565b505050565b600061117e826040518060400160405280602081526020017f5361666545524332303a206c6f772d6c6576656c2063616c6c206661696c65648152508573ffffffffffffffffffffffffffffffffffffffff166111e39092919063ffffffff16565b90506000815111156111de578080602001905181019061119e9190611606565b6111dd576040517f08c379a00000000000000000000000000000000000000000000000000000000081526004016111d490611b14565b60405180910390fd5b5b505050565b60606111f284846000856111fb565b90509392505050565b606082471015611240576040517f08c379a0000000000000000000000000000000000000000000000000000000008152600401611237906119f4565b60405180910390fd5b6112498561130f565b611288576040517f08c379a000000000000000000000000000000000000000000000000000000000815260040161127f90611a94565b60405180910390fd5b6000808673ffffffffffffffffffffffffffffffffffffffff1685876040516112b19190611905565b60006040518083038185875af1925050503d80600081146112ee576040519150601f19603f3d011682016040523d82523d6000602084013e6112f3565b606091505b5091509150611303828286611332565b92505050949350505050565b6000808273ffffffffffffffffffffffffffffffffffffffff163b119050919050565b6060831561134257829050611392565b6000835111156113555782518084602001fd5b816040517f08c379a000000000000000000000000000000000000000000000000000000000815260040161138991906119b2565b60405180910390fd5b9392505050565b6000813590506113a8816120d3565b92915050565b6000815190506113bd816120ea565b92915050565b6000813590506113d281612101565b92915050565b6000813590506113e781612118565b92915050565b6000813590506113fc8161212f565b92915050565b6000815190506114118161212f565b92915050565b600080600080600060a0868803121561142f57600080fd5b600061143d88828901611399565b955050602061144e88828901611399565b945050604061145f88828901611399565b9350506060611470888289016113ed565b9250506080611481888289016113c3565b9150509295509295909350565b60008060008060008060008060006101208a8c0312156114ad57600080fd5b60006114bb8c828d01611399565b99505060206114cc8c828d01611399565b98505060406114dd8c828d01611399565b97505060606114ee8c828d016113ed565b96505060806114ff8c828d016113ed565b95505060a06115108c828d016113ed565b94505060c06115218c828d016113ed565b93505060e06115328c828d016113d8565b9250506101006115448c828d016113c3565b9150509295985092959850929598565b600080600080600080600080610100898b03121561157157600080fd5b600061157f8b828c01611399565b98505060206115908b828c01611399565b97505060406115a18b828c016113ed565b96505060606115b28b828c016113ed565b95505060806115c38b828c016113ed565b94505060a06115d48b828c016113ed565b93505060c06115e58b828c01611399565b92505060e06115f68b828c016113d8565b9150509295985092959890939650565b60006020828403121561161857600080fd5b6000611626848285016113ae565b91505092915050565b60006020828403121561164157600080fd5b600061164f84828501611402565b91505092915050565b6000806000806080858703121561166e57600080fd5b600061167c878288016113ed565b945050602061168d878288016113ed565b935050604061169e87828801611399565b92505060606116af878288016113c3565b91505092959194509250565b6116c481611cdf565b82525050565b6116d381611cf1565b82525050565b60006116e482611b98565b6116ee8185611bae565b93506116fe818560208601611d3b565b80840191505092915050565b600061171582611ba3565b61171f8185611bb9565b935061172f818560208601611d3b565b61173881611dcc565b840191505092915050565b6000611750601d83611bb9565b915061175b82611ddd565b602082019050919050565b6000611773602683611bb9565b915061177e82611e06565b604082019050919050565b6000611796603183611bb9565b91506117a182611e55565b604082019050919050565b60006117b9602583611bb9565b91506117c482611ea4565b604082019050919050565b60006117dc602083611bb9565b91506117e782611ef3565b602082019050919050565b60006117ff601783611bb9565b915061180a82611f1c565b602082019050919050565b6000611822601d83611bb9565b915061182d82611f45565b602082019050919050565b6000611845601783611bb9565b915061185082611f6e565b602082019050919050565b6000611868604e83611bb9565b915061187382611f97565b606082019050919050565b600061188b602283611bb9565b91506118968261200c565b604082019050919050565b60006118ae602a83611bb9565b91506118b98261205b565b604082019050919050565b60006118d1601a83611bb9565b91506118dc826120aa565b602082019050919050565b6118f081611d31565b82525050565b6118ff81611d31565b82525050565b600061191182846116d9565b915081905092915050565b600060208201905061193160008301846116bb565b92915050565b600060608201905061194c60008301866116bb565b61195960208301856116bb565b61196660408301846118e7565b949350505050565b600060408201905061198360008301856116bb565b61199060208301846118e7565b9392505050565b60006020820190506119ac60008301846116ca565b92915050565b600060208201905081810360008301526119cc818461170a565b905092915050565b600060208201905081810360008301526119ed81611743565b9050919050565b60006020820190508181036000830152611a0d81611766565b9050919050565b60006020820190508181036000830152611a2d81611789565b9050919050565b60006020820190508181036000830152611a4d816117ac565b9050919050565b60006020820190508181036000830152611a6d816117cf565b9050919050565b60006020820190508181036000830152611a8d816117f2565b9050919050565b60006020820190508181036000830152611aad81611815565b9050919050565b60006020820190508181036000830152611acd81611838565b9050919050565b60006020820190508181036000830152611aed8161185b565b9050919050565b60006020820190508181036000830152611b0d8161187e565b9050919050565b60006020820190508181036000830152611b2d816118a1565b9050919050565b60006020820190508181036000830152611b4d816118c4565b9050919050565b6000602082019050611b6960008301846118f6565b92915050565b6000604082019050611b8460008301856118e7565b611b9160208301846118e7565b9392505050565b600081519050919050565b600081519050919050565b600081905092915050565b600082825260208201905092915050565b6000611bd582611d31565b9150611be083611d31565b9250827fffffffffffffffffffffffffffffffffffffffffffffffffffffffffffffffff03821115611c1557611c14611d6e565b5b828201905092915050565b6000611c2b82611d31565b9150611c3683611d31565b925082611c4657611c45611d9d565b5b828204905092915050565b6000611c5c82611d31565b9150611c6783611d31565b9250817fffffffffffffffffffffffffffffffffffffffffffffffffffffffffffffffff0483118215151615611ca057611c9f611d6e565b5b828202905092915050565b6000611cb682611d31565b9150611cc183611d31565b925082821015611cd457611cd3611d6e565b5b828203905092915050565b6000611cea82611d11565b9050919050565b60008115159050919050565b6000819050919050565b6000819050919050565b600073ffffffffffffffffffffffffffffffffffffffff82169050919050565b6000819050919050565b60005b83811015611d59578082015181840152602081019050611d3e565b83811115611d68576000848401525b50505050565b7f4e487b7100000000000000000000000000000000000000000000000000000000600052601160045260246000fd5b7f4e487b7100000000000000000000000000000000000000000000000000000000600052601260045260246000fd5b6000601f19601f8301169050919050565b7f46657374616b696e673a206e6f7420656e6f7567682062616c616e6365000000600082015250565b7f416464726573733a20696e73756666696369656e742062616c616e636520666f60008201527f722063616c6c0000000000000000000000000000000000000000000000000000602082015250565b7f46657374616b696e673a20776974686472617761626c6520616d6f756e74206360008201527f616e6e6f74206265206e65676174697665000000000000000000000000000000602082015250565b7f46657374616b696e673a206261642074696d696e6720666f722074686520726560008201527f7175657374000000000000000000000000000000000000000000000000000000602082015250565b7f46657374616b696e673a205374616b696e67206361702069732066696c6c6564600082015250565b7f46657374616b696e673a207a65726f2061646472657373000000000000000000600082015250565b7f416464726573733a2063616c6c20746f206e6f6e2d636f6e7472616374000000600082015250565b7f46657374616b696e673a206572726f7220706179696e67000000000000000000600082015250565b7f46657374616b696e673a20776974686472617761626c6520616d6f756e74206d60008201527f757374206265206c657373207468616e206f7220657175616c20746f2074686560208201527f2072657761726420616d6f756e74000000000000000000000000000000000000604082015250565b7f46657374616b696e673a20726577617264206d75737420626520706f7369746960008201527f7665000000000000000000000000000000000000000000000000000000000000602082015250565b7f5361666545524332303a204552433230206f7065726174696f6e20646964206e60008201527f6f74207375636365656400000000000000000000000000000000000000000000602082015250565b7f46657374616b696e673a206e6567617469766520616d6f756e74000000000000600082015250565b6120dc81611cdf565b81146120e757600080fd5b50565b6120f381611cf1565b81146120fe57600080fd5b50565b61210a81611cfd565b811461211557600080fd5b50565b61212181611d07565b811461212c57600080fd5b50565b61213881611d31565b811461214357600080fd5b5056fea264697066735822122023da371157de2365121a3d7f7444620dc9e2619e86600762f55400d2bcfa8ae564736f6c63430008040033",
  "linkReferences": {},
  "deployedLinkReferences": {}
}